:020000040000FA
:0600000053EF29F012008D
:0600080067EF26F0120074
:06001800B4EF26F0120017
:06002A0003006E5300000C
:10003000FD00000003000000595300004B0F0000BA
:1000400015000000C6520000600000009300000090
:10005000D9CFE6FFE1CFD9FFFD0EDBCF10F0DB06F5
:10006000FE0EDBCF11F001E2DB061050111002E0B2
:100070000000F2D7E552E7CFD9FF1200D9CFE6FF53
:10008000E1CFD9FFFD0EDBCF11FFFE0EDBCF12FF5C
:100090000F01136B146B12AF02D0136914690F01B7
:1000A000115112111311141101E0F9D7E552E7CFE4
:1000B000D9FF12008586F40EE66E010EE66EDEDFD5
:1000C000E552E552828685921200D9CFE6FFE1CF54
:1000D000D9FF050EE126DF6A010EDB6A020EDB6A3C
:1000E000690EDF5C01E17DD0DF502B0805E2630E75
:1000F000DF5C02E2DF2AF4D7010EDB6A030EF36E47
:10010000010EDBCFF4FFF350F45C22E2020EF76A3B
:10011000DB34FE0BF736F66EAE0EF626510EF722E6
:100120000900F5CFE6FF0800F5CFE6FFDFCFE6FFD9
:1001300083EC07F0E552E552E552F3CF10F0F4CF2F
:1001400011F01050111001E103D0010EDB2AD6D7B7
:10015000010EDB50030804E1010EF36EF46A44D093
:10016000010EDB6A030EF36E010EDBCFF4FFF350DA
:10017000F45C2BE2DFCFE6FF34EC07F0E552030E30
:10018000F3CFDBFF040EF4CFDBFF030EDBCF10F069
:10019000040EDBCF11F0020EF76ADB34FE0BF736EC
:1001A000F66EAE0EF626510EF7220900F5CF12F0CC
:1001B0000800F5CF13F01250101802E11350111877
:1001C00001E103D0010EDB2ACDD7010EDB5003087D
:1001D00004E1020EF36EF46A07D0020EDB2ADF2A76
:1001E0007FD7F36AF46A00D0050EE15C02E2E16AAF
:1001F000E552E16EE552E7CFD9FF1200D9CFE6FF15
:10020000E1CFD9FFFD0EDBCFE9FFFE0EDBCFEAFF2A
:10021000040ED890E936EA36E806FBE1600EE926DE
:10022000000EEA22EECFE6FFEFCFE6FF150EE66EF8
:1002300083EC07F0E552E552E552FD0EDBCFE9FF16
:10024000FE0EDBCFEAFF040ED890E936EA36E80668
:10025000FBE1600EE926000EEA22020EE926000EFE
:10026000EA22EECFE6FFEFCFE6FF160EE66E83EC56
:1002700007F0E552E552E552FD0EDBCFE9FFFE0E39
:10028000DBCFEAFF040ED890E936EA36E806FBE158
:10029000600EE926000EEA22040EE926000EEA228C
:1002A000EECFE6FFEFCFE6FF130EE66E83EC07F02E
:1002B000E552E552E552FD0EDBCFE9FFFE0EDBCF46
:1002C000EAFF040ED890E936EA36E806FBE1600E54
:1002D000E926000EEA22060EE926000EEA22EECFFB
:1002E000E6FFEFCFE6FF140EE66E83EC07F0E55273
:1002F000E552E552FD0EDBCFE9FFFE0EDBCFEAFF54
:10030000040ED890E936EA36E806FBE1600EE926ED
:10031000000EEA22090EE926000EEA22EF50E66EF0
:10032000310EE66EE0EC06F0E552E552FD0EDBCF55
:10033000E9FFFE0EDBCFEAFF040ED890E936EA367D
:10034000E806FBE1600EE926000EEA22080EE92627
:10035000000EEA22EF50E66E300EE66EE0EC06F09C
:10036000E552E552FD0EDBCFE9FFFE0EDBCFEAFFE3
:10037000040ED890E936EA36E806FBE1600EE9267D
:10038000000EEA220B0EE926000EEA22EF50E66E7E
:10039000330EE66EE0EC06F0E552E552FD0EDBCFE3
:1003A000E9FFFE0EDBCFEAFF040ED890E936EA360D
:1003B000E806FBE1600EE926000EEA220A0EE926B5
:1003C000000EEA22EF50E66E320EE66EE0EC06F02A
:1003D000E552E552FD0EDBCFE9FFFE0EDBCFEAFF73
:1003E000040ED890E936EA36E806FBE1600EE9260D
:1003F000000EEA220C0EE926000EEA22EF50E66E0D
:10040000220EE66EE0EC06F0E552E552FD0EDBCF83
:10041000E9FFFE0EDBCFEAFF040ED890E936EA369C
:10042000E806FBE1600EE926000EEA220D0EE92641
:10043000000EEA22EF50E66E460EE66EE0EC06F0A5
:10044000E552E552FD0EDBCFE9FFFE0EDBCFEAFF02
:10045000040ED890E936EA36E806FBE1600EE9269C
:10046000000EEA220E0EE926000EEA22EECFE6FF8B
:10047000EFCFE6FF240EE66E83EC07F0E552E5527F
:10048000E552E552E7CFD9FF1200D9CFE6FFE1CF21
:10049000D9FF090EE126670EE66E5C0EE66EE0EC13
:1004A00006F0E552E552160EE66E5D0EE66EE0ECE5
:1004B00006F0E552E552500EE66EF3EC06F0E5521A
:1004C000DF6E510EE66EF3EC06F0E552E76E010EBC
:1004D000E7CFDBFFDF50110804E3010EDB5011080A
:1004E0000CE2980EE66E490EE66E73EC21F0E552D2
:1004F000E552010EF36EF46A2BD12D0EE66E4A0E14
:10050000E66EE0EC06F0E552E552E66A0E0EE66EA7
:10051000E0EC06F0E552E5524A0EE66EF3EC06F02A
:10052000E552E66ED950050FE96EDACFEAFFE552E3
:10053000E750EE6EED6A050EDBCF10F0060EDBCF56
:1005400011F01A0E1102F3CF11F01A0E1002F3CFB0
:1005500010F0F45011260A0E0B6E0C6A10C006F053
:1005600011C007F02DEC29F006C010F007C011F003
:10057000070E10C0DBFF080E11C0DBFF070EDBCF3C
:1005800010F0080EDBCF11F0060E105E000E115AAF
:100590009C0E1102F3CF11F09C0E1002F3CF10F05D
:1005A000F4501126640E0B6E0C6A10C006F011C0D8
:1005B00007F02DEC29F006C010F007C011F0070E6F
:1005C00010C0DBFF080E11C0DBFF030EDB6A040E58
:1005D000DB6A020EDB6A030EDBCF10F0040EDBCF0A
:1005E00011F0070EDBCF12F0080EDBCF13F0125024
:1005F000105C135011585BE2020EF36E020EDBCF5B
:10060000F4FFF350F45C53E2070EDBCF06F0080E64
:10061000DBCF07F0030E06C0DBFF040E07C0DBFFD5
:10062000520EE66EE0DBE552DF6EDFCF10F0070E14
:10063000DBCF11F0080EDBCF12F01150105C000E72
:1006400012540BE2DF50E66ED950030FE96EDACF99
:10065000EAFFE552E750EE6EED6A020EDB5002084B
:100660001DE2030EDBCF10F0040EDBCF11F0070EFE
:10067000DBCF12F0080EDBCF13F01250105C1350DA
:1006800011580CE2780EE66E490EE66E73EC21F01E
:10069000E552E552010EF36EF46A5AD0640EE66E2E
:1006A000E66AECDCE552E552020EDB2A94D7670ECF
:1006B000E66E5C0EE66E84DBE552E552160EE66EE3
:1006C0005D0EE66E7DDBE552E5521E0EE66EE66AD5
:1006D000D5DCE552E552960EE66E5D0EE66E70DBF9
:1006E000E552E552010EDB6A5D0EE66E7CDBE552FB
:1006F000DF6E010EDBCFE7FFDF50E712010EE7CF21
:10070000DBFFDFAE10D0020EDB500A080CE2620EF7
:10071000E66E490EE66E73EC21F0E552E552010EED
:10072000F36EF46A15D0640EE66EE66AA7DCE55255
:10073000E552020EDB500A0802E2010EDB6A020EED
:10074000DB2A010EDB50800BCDE1F36AF46A00D0A6
:10075000090EE15C02E2E16AE552E16EE552E7CFA3
:10076000D9FF1200D9CFE6FFE1CFD9FF020EE12673
:10077000580EDE6EDD6ADECF10F0DDCF11F0D890BE
:10078000115004E6D40E105C000E11580EE2000E5B
:10079000E66EE66ADFCFE6FFB6DBE552E552E552EC
:1007A000DF2A010E01E3DB2AE6D7020EE15C02E25A
:1007B000E16AE552E16EE552E7CFD9FF1200D9CFE9
:1007C000E6FFE1CFD9FF020EE126808A8282C66A67
:1007D00071DCF40EE66E010EE66E50DCE552E55279
:1007E0008582C76A320EC66EE66AFDDAE552DF6EB2
:1007F000DFCFE6FF4F0EE66E490EE66E1B0EE66E8D
:100800000F0EE66E1AEC1AF0106E050EE15E105037
:100810001B0EE66E0F0EE66EC0EC21F0E552E552BF
:10082000080EE66EE0DAE552020808E0330EE66EE6
:10083000490EE66E73EC21F0E552E5520B0EE66EC2
:10084000D2DAE552330808E0160EE66E490EE66E7F
:1008500073EC21F0E552E55285DF37DCF3CF10F081
:10086000F4CF11F01050111009E0FD0EE66E480EA5
:10087000E66E73EC21F0E552E552FFD7E30EE66E2B
:10088000480EE66E73EC21F0E552E552E66A080E7A
:10089000E66E96DAE552E552EB0EE66E6C0EE66E0B
:1008A0008FDAE552E552F1DDF3CF10F0F4CF11F01D
:1008B0001050111009E0C60EE66E480EE66E73EC9D
:1008C00021F0E552E552FFD7B50EE66E480EE66E12
:1008D00073EC21F0E552E552E66A400EE66E70DAFE
:1008E000E552E5522D0EE66E4A0EE66E69DAE552E5
:1008F000E552DF6A070EDF5C1CE20A0EE66EE66A6E
:100900003EEC00F0E552E552480EE66E5D0EE66EF6
:1009100057DAE552E5522C0EE66E010EE66E3EEC1D
:1009200000F0E552E5525D0EE66E5DDAE552DF6EEF
:10093000E1D7E66A150EE66E43DAE552E552E66A5D
:10094000160EE66E3DDAE552E552E66A170EE66EE1
:1009500037DAE552E552E66A400EE66E31DAE552E4
:10096000E552DF501CE01E0EE66E610EE66E28DAE0
:10097000E552E552470EE66E600EE66E21DAE5526C
:10098000E552200EE66E030EE66E3EEC00F0E552F8
:10099000E552600EE66E27DAE552DF6EE2D70A0E08
:1009A000E66EE66A3EEC00F0E552E552100EE66EA9
:1009B000630EE66E05DAE552E552DE521F0EDD6E7D
:1009C000010EDB5000081AE2010EDBCFE6FF620EDB
:1009D000E66EF6D9E552E552280EE66EE66A3EEC82
:1009E00000F0E552E552580EE66EFDD9E552DF6E95
:1009F000DF5001E103D0010EDB06E2D7DF5009E151
:100A00009F0EE66E480EE66E73EC21F0E552E5525D
:100A100019D0010EDBCFE6FF840EE66E480EE66EBF
:100A20001B0EE66E0F0EE66E1AEC1AF0106E050E37
:100A3000E15E10501B0EE66E0F0EE66EC0EC21F06C
:100A4000E552E552DE521F0EDD6E010EDB5000084E
:100A50001AE2010EDBCFE6FF630EE66EB1D9E55276
:100A6000E552280EE66EE66A3EEC00F0E552E552ED
:100A7000590EE66EB8D9E552DF6EDF5001E103D0C2
:100A8000010EDB06E2D7DF5009E16C0EE66E480E80
:100A9000E66E73EC21F0E552E55219D0010EDBCF82
:100AA000E6FF840EE66E480EE66E1B0EE66E0F0E37
:100AB000E66E1AEC1AF0106E050EE15E10501B0E79
:100AC000E66E0F0EE66EC0EC21F0E552E552040E24
:100AD000E66E170EE66E74D9E552E552010EE66E2B
:100AE000400EE66E6DD9E552E552FA0EE66EE66A04
:100AF0003EEC00F0E552E552440EE66E74D9E55244
:100B0000010B09E0560EE66E480EE66E73EC21F01E
:100B1000E552E55208D0470EE66E480EE66E73ECDD
:100B200021F0E552E552280EE66E0A0EE66E48D92F
:100B3000E552E552280EE66E010EE66E41D9E55209
:100B4000E552010EE66E040EE66E3AD9E552E55224
:100B5000E66A050EE66E34D9E552E552060EE66EFB
:100B6000090EE66E2DD9E552E552180EE66E220EFC
:100B7000E66E26D9E552E552800EE66E300EE66E40
:100B80001FD9E552E5523E0EE66E310EE66E18D9DB
:100B9000E552E5527D0EE66E330EE66E11D9E55252
:100BA000E5520C0EE66E450EE66E0AD9E552E552A8
:100BB000010EE66E610EE66E03D9E552E552400E77
:100BC000E66E180EE66EFCD8E552E552400EE66E73
:100BD000600EE66EF5D8E552E552600EE66E410E07
:100BE000E66EEED8E552E552010EE66E470EE66E71
:100BF000E7D8E552E552120EE66EF5D8E552DF6E03
:100C0000DFCFE6FF120EE66EDBD8E552E552130E9B
:100C1000E66EE9D8E552DF6EDFCFE6FF130EE66E33
:100C2000CFD8E552E552140EE66EDDD8E552DF6E00
:100C3000DFCFE6FF140EE66EC3D8E552E552E66A52
:100C4000800EE66E230EE66E5ED9E552E552E55261
:100C5000200EE66E030EE66E240EE66E54D9E552C3
:100C6000E552E5528C0EE66EE66A250EE66E4BD92D
:100C7000E552E552E5528C0EE66EE66A260EE66E09
:100C800042D9E552E552E552100EE66EE66A270EAD
:100C9000E66E39D9E552E552E552E668150EE66E84
:100CA0008FD8E552E552E668160EE66E89D8E55211
:100CB000E552E668170EE66E83D8E552E552110E4E
:100CC000E66E400EE66E7CD8E552E552350EE66ED5
:100CD000480EE66E73EC21F0E552E5528596000E63
:100CE000E66EE66AFEEC00F0E552E552040EE66EB2
:100CF000E66A8EDAE552E552000EE66EE66A06EC2A
:100D00000CF0E552E552000EE66EE66A000EE66E65
:100D1000E66A64EC0CF0E552E552E552E5520F014B
:100D2000E80E116F030E126F136B146B020EE15C71
:100D300002E2E16AE552E16EE552E7CFD9FF120027
:100D4000D9CFE6FFE1CFD9FF020EE1260A0EDE6E13
:100D5000DD6ADFCF10F0DF06010EDBCF11F001E21C
:100D6000DB061050111001E0F4D7020EE15C02E244
:100D7000E16AE552E16EE552E7CFD9FF1200D9CF23
:100D8000E6FFE1CFD9FF8596FE0EDBCFE6FFD0EC84
:100D900027F0E5528586E552E7CFD9FF1200D9CF7B
:100DA000E6FFE1CFD9FFE6528596BEEC27F0DF6E75
:100DB0008586DF5000D0E552E552E7CFD9FF12001B
:100DC000D9CFE6FFE1CFD9FFFE0EDBCFE6FFD7DFBD
:100DD000E552B6DFFD0EDBCFE6FFD1DFE552E5528F
:100DE000E7CFD9FF1200D9CFE6FFE1CFD9FFFE0E42
:100DF000DB508009E66EC3DFE552A2DFD0DF00D012
:100E0000E552E7CFD9FF1200D9CFE6FFE1CFD9FFF6
:100E1000020EE126DE6ADD6ADECF10F0DDCF11F0D2
:100E2000D890115004E6E80E105C030E11580EE243
:100E30001F0EE66ED8DFE552000903E1F36AF46A9B
:100E400009D0DF2A010E01E3DB2AE6D7010EF36E9B
:100E5000F46A00D0020EE15C02E2E16AE552E16E62
:100E6000E552E7CFD9FF1200D9CFE6FFE1CFD9FF96
:100E7000020EE126DE6ADD6AC7DFF3CF10F0F4CFA1
:100E800011F01050111005E0AD0EF36EDE0EF46E91
:100E900030D0FE0EDBCFE6FF1E0EE66E91DFE55290
:100EA000E552B2DFF3CF10F0F4CF11F01050111073
:100EB00005E0EF0EF36EBE0EF46E1BD01D0EE66E57
:100EC00092DFE552DE6EDD6AD9CFE9FFDACFEAFFC5
:100ED000EE50ED6EEF6A1C0EE66E85DFE552DF1216
:100EE000DECF10F0DDCF11F010C0F3FF11C0F4FF22
:100EF00000D0020EE15C02E2E16AE552E16EE552E9
:100F0000E7CFD9FF1200D9CFE6FFE1CFD9FF7CDFD1
:100F1000F3CF10F0F4CF11F01050111004E0010ED7
:100F2000F36EF46A31D0FF0EE76EFC0EDBCF10F0EB
:100F3000FD0EDBCF11F0E7501016116A1050E66E6F
:100F40001C0EE66E3DDFE552E552FC0EDBCF10F0E5
:100F5000FD0EDBCF11F0000E1016FF0E111611C0A2
:100F600010F0116A1050E66E1D0EE66E29DFE55294
:100F7000E552FE0EDBCFE6FF1E0EE66E21DFE552E8
:100F8000E552F36AF46A00D0E552E7CFD9FF1200C8
:100F9000D9CFE6FFE1CFD9FF050EE126220EE66E9E
:100FA000480EE66E73EC21F0E552E552030EDB6A63
:100FB000040EDB6A030EDBCF10F0040EDBCF11F062
:100FC000D890115004E66D0E105C000E115847E2E7
:100FD000030EDBCFE6FF07DFE552DF6E030EDBCF4C
:100FE000E6FF040EDBCFE6FF1D0EE66E480EE66E52
:100FF0001B0EE66E0F0EE66E1AEC1AF0106E060E61
:10100000E15E10501B0EE66E0F0EE66EC0EC21F096
:10101000E552E552DFCFE6FF160EE66E480EE66EAD
:101020001B0EE66E0F0EE66E1AEC1AF0106E050E31
:10103000E15E10501B0EE66E0F0EE66EC0EC21F066
:10104000E552E552050EE66EE66A3EEC00F0E5522A
:10105000E552030EDB2A040E01E3DB2AABD7010EB7
:10106000E66E480EE66E73EC21F0E552E552030E93
:10107000DB6A040EDB6A030EDBCF10F0040EDBCF5D
:1010800011F0D890115004E62C0E105C000E11588F
:1010900050E2030EDBCFE6FFE7DEE552DE52F3CF90
:1010A000DEFFF4CFDDFFDD52030EDBCFE6FF040EE3
:1010B000DBCFE6FFFC0EE66E470EE66E1B0EE66E1D
:1010C0000F0EE66E1AEC1AF0106E060EE15E10506E
:1010D0001B0EE66E0F0EE66EC0EC21F0E552E552F7
:1010E000010EDBCFE6FF020EDBCFE6FF160EE66E4B
:1010F000480EE66E1B0EE66E0F0EE66E1AEC1AF048
:10110000106E060EE15E10501B0EE66E0F0EE66EC0
:10111000C0EC21F0E552E552050EE66EE66A3EECC3
:1011200000F0E552E552030EDB2A040E01E3DB2A50
:10113000A2D7630EF36E030EF3CFDBFF040EDB6A60
:10114000030EDBCF10F0040EDBCF11F0D89011505E
:1011500004E6690E105C000E115850E2030EDBCF5E
:10116000E6FF82DEE552DE52F3CFDEFFF4CFDDFF95
:10117000DD52030EDBCFE6FF040EDBCFE6FFFC0EF5
:10118000E66E470EE66E1B0EE66E0F0EE66E1AEC6E
:101190001AF0106E060EE15E10501B0EE66E0F0E7A
:1011A000E66EC0EC21F0E552E552010EDBCFE6FF22
:1011B000020EDBCFE6FF160EE66E480EE66E1B0E45
:1011C000E66E0F0EE66E1AEC1AF0106E060EE15E79
:1011D00010501B0EE66E0F0EE66EC0EC21F0E552CD
:1011E000E552050EE66EE66A3EEC00F0E552E55289
:1011F000030EDB2A040E01E3DB2AA2D7050EE15C15
:1012000002E2E16AE552E16EE552E7CFD9FF120052
:10121000D9CFE6FFE1CFD9FF020EE126700EDE6ED8
:10122000000EDD6EFD0EDBCF10F0FE0EDBCF11F0F9
:10123000160E1102F3CF11F0160E1002F3CF10F0BC
:10124000F4501126DE501024E96EDD501120EA6EB4
:10125000020EE926000EEA22EECFE6FFEFCFE6FF10
:101260000E0EE66E50DEE552E552E552FD0EDBCF86
:1012700010F0FE0EDBCF11F0160E1102F3CF11F0BD
:10128000160E1002F3CF10F0F4501126DE50102489
:10129000E96EDD501120EA6E040EE926000EEA2206
:1012A000EECFE6FFEFCFE6FF0F0EE66E2CDEE55247
:1012B000E552E552FD0EDBCF10F0FE0EDBCF11F054
:1012C000160E1102F3CF11F0160E1002F3CF10F02C
:1012D000F4501126DE501024E96EDD501120EA6E24
:1012E000EECFE6FFEFCFE6FF0D0EE66E0CDEE55229
:1012F000E552E552FD0EDBCF10F0FE0EDBCF11F014
:10130000160E1102F3CF11F0160E1002F3CF10F0EB
:10131000F4501126DE501024E96EDD501120EA6EE3
:10132000070EE926000EEA22EF50E66E250EE66E65
:1013300047DDE552E552FD0EDBCF10F0FE0EDBCFB0
:1013400011F0160E1102F3CF11F0160E1002F3CFAA
:1013500010F0F4501126DE501024E96EDD501120FB
:10136000EA6E060EE926000EEA22EF50E66E240E23
:10137000E66E26DDE552E552FD0EDBCF10F0FE0EE7
:10138000DBCF11F0160E1102F3CF11F0160E100282
:10139000F3CF10F0F4501126DE501024E96EDD502A
:1013A0001120EA6E090EE926000EEA22EF50E66EE1
:1013B000270EE66E05DDE552E552FD0EDBCF10F09F
:1013C000FE0EDBCF11F0160E1102F3CF11F0160E48
:1013D0001002F3CF10F0F4501126DE501024E96E05
:1013E000DD501120EA6E080EE926000EEA22EF50C9
:1013F000E66E260EE66EE4DCE552E552FD0EDBCF2E
:1014000010F0FE0EDBCF11F0160E1102F3CF11F02B
:10141000160E1002F3CF10F0F4501126DE501024F7
:10142000E96EDD501120EA6E0A0EE926000EEA226E
:10143000020EE926000EEA22EECFE6FFEFCFE6FF2E
:10144000110EE66E60DDE552E552E552FD0EDBCF92
:1014500010F0FE0EDBCF11F0160E1102F3CF11F0DB
:10146000160E1002F3CF10F0F4501126DE501024A7
:10147000E96EDD501120EA6E0A0EE926000EEA221E
:10148000040EE926000EEA22EECFE6FFEFCFE6FFDC
:10149000120EE66E38DDE552E552E552FD0EDBCF69
:1014A00010F0FE0EDBCF11F0160E1102F3CF11F08B
:1014B000160E1002F3CF10F0F4501126DE50102457
:1014C000E96EDD501120EA6E0A0EE926000EEA22CE
:1014D000EECFE6FFEFCFE6FF100EE66E14DDE5522D
:1014E000E552E552FD0EDBCF10F0FE0EDBCF11F022
:1014F000160E1102F3CF11F0160E1002F3CF10F0FA
:10150000F4501126DE501024E96EDD501120EA6EF1
:101510000A0EE926000EEA22070EE926000EEA224C
:10152000EF50E66E290EE66E4BDCE552E552FD0EFD
:10153000DBCF10F0FE0EDBCF11F0160E1102F3CF51
:1015400011F0160E1002F3CF10F0F4501126DE50F9
:101550001024E96EDD501120EA6E0A0EE926000E15
:10156000EA22060EE926000EEA22EF50E66E280E69
:10157000E66E26DCE552E552FD0EDBCF10F0FE0EE6
:10158000DBCF11F0160E1102F3CF11F0160E100280
:10159000F3CF10F0F4501126DE501024E96EDD5028
:1015A0001120EA6E0A0EE926000EEA22090EE9264B
:1015B000000EEA22EF50E66E2B0EE66EE0EC06F02F
:1015C000E552E552FD0EDBCF10F0FE0EDBCF11F041
:1015D000160E1102F3CF11F0160E1002F3CF10F019
:1015E000F4501126DE501024E96EDD501120EA6E11
:1015F0000A0EE926000EEA22080EE926000EEA226B
:10160000EF50E66E2A0EE66EE0EC06F0E552E5528B
:10161000FD0EDBCF10F0FE0EDBCF11F0160E110227
:10162000F3CF11F0160E1002F3CF10F0F450112684
:10163000DE501024E96EDD501120EA6E140EE9260A
:10164000000EEA22EF50E66E200EE66EE0EC06F0A9
:10165000E552E552FD0EDBCF10F0FE0EDBCF11F0B0
:10166000160E1102F3CF11F0160E1002F3CF10F088
:10167000F4501126DE501024E96EDD501120EA6E80
:10168000150EE926000EEA22EF50E66E210EE66EF8
:10169000E0EC06F0E552E552020EE15C02E2E16A9E
:1016A000E552E16EE552E7CFD9FF1200D9CFE6FF50
:1016B000E1CFD9FFE652200EE66EF3EC06F0E552DC
:1016C000DF6E000EDB94DB96DB98DFCFE6FF200EAB
:1016D000E66EE0EC06F0E552E552210EE66EF3EC24
:1016E00006F0E552DF6E000EDB94DB96DB98DFCF71
:1016F000E6FF210EE66EE0EC06F0E552E552E5521B
:10170000E552E7CFD9FF1200D9CFE6FFE1CFD9FFED
:10171000E652CCDF200EE66EF3EC06F0E552DF6E0B
:10172000FE0EDB5002E0180E01D0000E040FDF1297
:10173000DFCFE6FF200EE66EE0EC06F0E552E55264
:10174000210EE66EF3EC06F0E552DF6EFE0EDB5086
:1017500002E0180E01D0000E040FDF12DFCFE6FF0B
:10176000210EE66EE0EC06F0E552E552E552E55258
:10177000E7CFD9FF1200040EE66E400EE66EE0ECF5
:1017800006F0E552E5521200010EE66E400EE66EDE
:10179000E0EC06F0E552E5521200E668230EE66E34
:1017A000E0EC06F0E552E5521200E66A230EE66E22
:1017B000E0EC06F0E552E5521200D9CFE6FFE1CFAA
:1017C000D9FF180EE66EF3EC06F0E552E66EFD0E5C
:1017D000DBCFE9FFFE0EDBCFEAFFE552E750EF6E0D
:1017E000FD0EDBCFE9FFFE0EDBCFEAFFEF500F0B64
:1017F000E66EFD0EDBCFE9FFFE0EDBCFEAFFE55222
:10180000E750EF6EE552E7CFD9FF1200D9CFE6FFE0
:10181000E1CFD9FFE652DF6AFD0EDBCFE9FFFE0E16
:10182000DBCFEAFF030EEA02F3CFEAFF030EE90281
:10183000F3CFE9FFF450EA26DE0EE926000EEA2295
:10184000EF50040DF350DF12FD0EDBCFE9FFFE0E6B
:10185000DBCFEAFF030EEA02F3CFEAFF030EE90251
:10186000F3CFE9FFF450EA26DE0EE926000EEA2265
:10187000EE52EF50400DF350DF12FD0EDBCFE9FFCB
:10188000FE0EDBCFEAFF030EEA02F3CFEAFF030E00
:10189000E902F3CFE9FFF450EA26DE0EE926000E56
:1018A000EA22020EE926000EEA22EF50DF12280E8D
:1018B000E66E010EE66EE0EC06F0E552E552E5520A
:1018C000E552E7CFD9FF1200D9CFE6FFE1CFD9FF2C
:1018D000010EE66E020EE66EE0EC06F0E552E55211
:1018E000E66A030EE66EE0EC06F0E552E552010E04
:1018F000E66E040EE66EE0EC06F0E552E552E66AAE
:10190000050EE66EE0EC06F0E552E552E552E7CF53
:10191000D9FF1200D9CFE6FFE1CFD9FFE652090E79
:10192000E66EF3EC06F0E552DF6E000EDB94DB961C
:10193000FD0EDBCFE9FFFE0EDBCFEAFF030EEA026E
:10194000F3CFEAFF030EE902F3CFE9FFF450EA26F2
:10195000E40EE926000EEA22EF50040DF350DF10EA
:10196000E66E090EE66EE0EC06F0E552E552FD0E7D
:10197000DBCFE9FFFE0EDBCFEAFF030EEA02F3CF77
:10198000EAFF030EE902F3CFE9FFF450EA26E40E82
:10199000E926000EEA22EE52EECFE6FFEFCFE6FF99
:1019A0001B0EE66E83EC07F0E552E552E552E55278
:1019B000E552E7CFD9FF1200D9CFE6FFE1CFD9FF3B
:1019C000E652090EE66EF3EC06F0E552DF6E000E0D
:1019D000DB90DB92FD0EDBCFE9FFFE0EDBCFEAFFF3
:1019E000030EEA02F3CFEAFF030EE902F3CFE9FFA9
:1019F000F450EA26E40EE926000EEA22EF50DF104A
:101A0000E66E090EE66EE0EC06F0E552E552FD0EDC
:101A1000DBCFE9FFFE0EDBCFEAFF030EEA02F3CFD6
:101A2000EAFF030EE902F3CFE9FFF450EA26E40EE1
:101A3000E926000EEA22EE52EECFE6FFEFCFE6FFF8
:101A40001A0EE66E83EC07F0E552E552E552E552D8
:101A5000E552E7CFD9FF1200D9CFE6FFE1CFD9FF9A
:101A6000FD0EDBCFE9FFFE0EDBCFEAFF0C0EEA0234
:101A7000F3CFEAFF0C0EE902F3CFE9FFF450EA26B8
:101A8000E70EE926000EEA22080EE926000EEA22F9
:101A9000EECFE6FFEFCFE6FF630EE66E83EC07F0D6
:101AA000E552E552E552FD0EDBCFE9FFFE0EDBCF3E
:101AB000EAFF0C0EEA02F3CFEAFF0C0EE902F3CFC5
:101AC000E9FFF450EA26E70EE926000EEA22040EAA
:101AD000E926000EEA22EECFE6FFEFCFE6FF640E26
:101AE000E66E83EC07F0E552E552E552FD0EDBCFE2
:101AF000E9FFFE0EDBCFEAFF0C0EEA02F3CFEAFFAE
:101B00000C0EE902F3CFE9FFF450EA26E70EE926CE
:101B1000000EEA220A0EE926000EEA22EECFE6FFC8
:101B2000EFCFE6FF650EE66E83EC07F0E552E55277
:101B3000E552FD0EDBCFE9FFFE0EDBCFEAFF0C0E18
:101B4000EA02F3CFEAFF0C0EE902F3CFE9FFF4500B
:101B5000EA26E70EE926000EEA22060EE926000E26
:101B6000EA22EECFE6FFEFCFE6FF660EE66E83ECED
:101B700007F0E552E552E552FD0EDBCFE9FFFE0E20
:101B8000DBCFEAFF0C0EEA02F3CFEAFF0C0EE9020C
:101B9000F3CFE9FFF450EA26E70EE926000EEA2229
:101BA000EECFE6FFEFCFE6FF670EE66E83EC07F0C1
:101BB000E552E552E552FD0EDBCFE9FFFE0EDBCF2D
:101BC000EAFF0C0EEA02F3CFEAFF0C0EE902F3CFB4
:101BD000E9FFF450EA26E70EE926000EEA22020E9B
:101BE000E926000EEA22EECFE6FFEFCFE6FF680E11
:101BF000E66E83EC07F0E552E552E552130EE66E11
:101C0000240EE66EE0EC06F0E552E552E66A250E9B
:101C1000E66EE0EC06F0E552E552E552E7CFD9FF7B
:101C20001200D9CFE6FFE1CFD9FFE65285B497D0B5
:101C3000140EE66EF3EC06F0E552DF6EDF5033E093
:101C4000DFCFE6FF140EE66EE0EC06F0E552E5525B
:101C5000DFA029D0180EE66EF3EC06F0E552DF6E39
:101C6000DFA821D00F0EDF14300F0101DC6F01015E
:101C7000DD6BDC0EE66E010EE66EF20EE66E470ED2
:101C8000E66E1B0EE66E0F0EE66E1AEC1AF0106E84
:101C9000060EE15E10501B0EE66E0F0EE66EC0ECF7
:101CA00021F0E552E552120EE66EF3EC06F0E55235
:101CB000DF6EDF5008E0DFCFE6FF120EE66EE0ECED
:101CC00006F0E552E552130EE66EF3EC06F0E5522F
:101CD000DF6EDF5044E0DFCFE6FF130EE66EE0EC90
:101CE00006F0E552E552DFCFE6FFE30EE66E470E63
:101CF000E66E1B0EE66E0F0EE66E1AEC1AF0106E14
:101D0000050EE15E10501B0EE66E0F0EE66EC0EC87
:101D100021F0E552E552440EE66EF3EC06F0E55292
:101D2000DF6EDFA40AD0C2DCDA0EE66E470EE66E86
:101D300073EC21F0E552E55212D0040EE66EE66A2D
:101D400008EC09F0E552E552E66ADEDCE552D00E19
:101D5000E66E470EE66E73EC21F0E552E552E55271
:081D6000E552E7CFD9FF1200A4
:081D6800D9CFE6FFE1CFD9FF5E
:101D7000FD0EDBCF05FFFE0EDBCF06FF0F01076B6D
:101D8000086B06AF02D0076908690F0105510611FB
:101D90000711081101E0F9D7E552E7CFD9FF12008A
:101DA000D9CFE6FFE1CFD9FF020EE126640EDE6E49
:101DB000DD6AD9CFE9FFDACFEAFFEE06000EED5A71
:101DC000EECF10F0EDCF11F01050111001E0F1D76F
:101DD000020EE15C02E2E16AE552E16EE552E7CF14
:101DE000D9FF1200D9CFE6FFE1CFD9FF020EE126DD
:101DF0000101966BDE6ADD6ADECF10F0DDCF11F0F7
:101E0000D890115004E6300E105C000E11580EE20E
:101E1000DECFE9FFDDCFEAFF3F0EE926010EEA2221
:101E2000EF6ADF2A010E01E3DB2AE6D70F01E80E95
:101E3000156F030E166F176B186BFD0EDBCFE6FFE9
:101E4000FE0EDBCFE6FFEFD9E552E552F3CFDEFF22
:101E5000F4CFDDFFD9CFE9FFDACFEAFFEE50ED1086
:101E60001BE0DECFE6FFDDCFE6FF940EE66E470E09
:101E7000E66E1B0EE66E0F0EE66E1AEC1AF0106E92
:101E8000060EE15E10501B0EE66E0F0EE66EC0EC05
:101E900021F0E552E55267D06FEC15F0F3CFDEFF8D
:101EA000F4CFDDFFD9CFE9FFDACFEAFFEE50ED1036
:101EB0001BE0DECFE6FFDDCFE6FF7E0EE66E470ECF
:101EC000E66E1B0EE66E0F0EE66E1AEC1AF0106E42
:101ED000060EE15E10501B0EE66E0F0EE66EC0ECB5
:101EE00021F0E552E5523FD0660EE66E470EE66EF3
:101EF00073EC21F0E552E5520101010E966F57ECAB
:101F000019F0F3CF84F1F4CF85F1010184518511EB
:101F10001BE084C1E6FF85C1E6FF4C0EE66E470E6E
:101F2000E66E1B0EE66E0F0EE66E1AEC1AF0106EE1
:101F3000060EE15E10501B0EE66E0F0EE66EC0EC54
:101F400021F0E552E55208D0340EE66E470EE66EFB
:101F500073EC21F0E552E5520F01B80E156F880EB3
:101F6000166F176B186BDECF10F0DDCF11F010C0BD
:101F7000F3FF11C0F4FF00D0020EE15C02E2E16A5F
:101F8000E552E16EE552E7CFD9FF12008284A00E40
:101F9000E66E0F0EE66EE8DEE552E5528294D00E54
:101FA000E66E070EE66EE0DEE552E5528284120030
:101FB00012001200D9CFE6FFE1CFD9FF000E00D00A
:101FC000E552E7CFD9FF120001C103F102C104F1CC
:101FD0000101016B026B0101080E3B6F010E3C6FAA
:101FE0000101396B12000F0115511611171118114B
:101FF00001E0A7D0AFEC14F0F3CF84F1F4CF85F17A
:10200000020E0101841901E185513AE0010E01013E
:10201000841901E1855101E060D0B8DFA90EE66EB8
:10202000010EE66EDFDEE552E552F3CF84F1F4CF28
:1020300085F101018451851122E084C1E6FF85C14B
:10204000E6FF220EE66E470EE66E1B0EE66E0F0EE4
:10205000E66E1AEC1AF0106E060EE15E10501B0EC2
:10206000E66E0F0EE66EC0EC21F0E552E5520F0170
:10207000880E156F130E166F176B186B62D02DD06C
:102080006FEC15F0F3CF84F1F4CF85F101018451A9
:10209000851122E084C1E6FF85C1E6FF130EE66EDE
:1020A000470EE66E1B0EE66E0F0EE66E1AEC1AF089
:1020B000106E060EE15E10501B0EE66E0F0EE66E01
:1020C000C0EC21F0E552E5520F01880E156F130E9A
:1020D000166F176B186B35D000D057EC19F0F3CF93
:1020E00084F1F4CF85F10101845185111BE084C195
:1020F000E6FF85C1E6FF4C0EE66E470EE66E1B0E50
:10210000E66E0F0EE66E1AEC1AF0106E060EE15E29
:1021100010501B0EE66E0F0EE66EC0EC21F0E5527D
:10212000E55208D0000EE66E470EE66E73EC21F025
:10213000E552E5520F01B80E156F880E166F176B3A
:10214000186B1200AC50020B020A01E0010E00D025
:102150001200ABA202D0AB98AB889E50200B01E0DE
:10216000010E00D01200AE5000D01200AE5000D0D0
:102170001200D9CFE6FFE1CFD9FFFE0EDB50AD6EE6
:10218000E552E7CFD9FF1200D9CFE6FFE1CFD9FF63
:10219000020EE126DF6AFC0EDB50DF5C19E2D9DFBC
:1021A000000901E1FCD7E2DFE76E010EE7CFDBFFBC
:1021B000FD0EDBCFE9FFFE0EDBCFEAFF010EDBCF2A
:1021C000EFFFFD0EDB2AFE0E01E3DB2ADF2AE3D759
:1021D000020EE15C02E2E16AE552E16EE552E7CF10
:1021E000D9FF1200D9CFE6FFE1CFD9FFABDF00095D
:1021F00001E0FCD7FD0EDBCFF6FFFE0EDBCFF7FFD5
:102200000800F550AD6EFD0EDBCFF6FFDB2AFE0EAB
:10221000DBCFF7FF01E3DB2A0800F550E7E1E552E9
:10222000E7CFD9FF1200D9CFE6FFE1CFD9FF020EE9
:10223000E126DE6ADD6AAC6AAB6A7E6A7E86AC84C1
:10224000960EAB6E260EAC6EFD0EDB50AF6EFD0E25
:10225000DBCF10F0FE0EDBCF11F011C010F0116AD1
:1022600010507F6ED08E9F8AF28E9D8A0F014E6B2A
:102270004F6BEF0EE66E460EE66E73EC21F0E55204
:10228000E5520F01A00E156F0F0E166F176B186B2E
:1022900081B639D0DF2A010E01E3DB2A2C0EE66E6F
:1022A000010EE66E61DDE552E552DECFE6FFDDCFE1
:1022B000E6FFDC0EE66E460EE66E1B0EE66E0F0EB9
:1022C000E66E1AEC1AF0106E060EE15E10501B0E50
:1022D000E66E0F0EE66EC0EC21F0E552E552DF2A05
:1022E000010E01E3DB2ADECF10F0DDCF11F0113457
:1022F00004E21050F008000E115404E2010EF36ED7
:10230000F46AE0D0C5D7D70EE66E460EE66EE0DA88
:10231000E552E552E80EE66E030EE66EDDD8E552B4
:10232000E552F3CF10F0F4CF11F01050111023E06C
:10233000080E0F015425E96E010E0F015521EA6EBA
:10234000EF6AD70EE66E460EE66E080EE66E010EDA
:10235000E66E26EC1FF0E552E552E552E552F3CF6A
:1023600010F0F4CF11F01050111004E0020EF36ED3
:10237000F46AA8D004D0020EF36EF46AA3D0640EFF
:10238000E66EE66AF1DCE552E552DE6ADD6A200EB1
:10239000E66E030EE66EE8DCE552E552CE0EE66E22
:1023A000460EE66E95DAE552E552E80EE66E030E4D
:1023B000E66E92D8E552E552F3CF10F0F4CF11F06B
:1023C000105011101FE1DECFE6FFDDCFE6FFBB0EA0
:1023D000E66E460EE66E1B0EE66E0F0EE66E1AEC0D
:1023E0001AF0106E060EE15E10501B0EE66E0F0E18
:1023F000E66EC0EC21F0E552E552DF2A010E01E362
:10240000DB2AC5D7B70EE66E460EE66E080EE66E00
:10241000010EE66E26EC1FF0E552E552E552E5525C
:10242000F3CF10F0F4CF11F01050111001E12ED0C5
:10243000DECFE6FFDDCFE6FFA40EE66E460EE66ECB
:102440001B0EE66E0F0EE66E1AEC1AF0106E060EFC
:10245000E15E10501B0EE66E0F0EE66EC0EC21F032
:10246000E552E552DF2A010E01E3DB2ADECF10F050
:10247000DDCF11F0113404E210509608000E115413
:1024800004E2050EF36EF46A1DD081D79B0EE66E52
:10249000460EE66E1DDAE552E552E80EE66E030ED4
:1024A000E66E87D8E552E552F3CF10F0F4CF11F085
:1024B0001050111004E1030EF36EF46A03D0F36AB6
:1024C000F46A00D0020EE15C02E2E16AE552E16EDC
:1024D000E552E7CFD9FF1200D9CFE6FFE1CFD9FF10
:1024E000020EE126DE6ADD6A0F01566B576B0F01A3
:1024F000545155111DE1020EE66EE66A35DCE552D7
:10250000E552DECF10F0DDCF11F0FD0EDBCF12F083
:10251000FE0EDBCF13F01050125C1150135803E283
:10252000F36AF46A3CD0DF2A010E01E3DB2ADFD72D
:10253000DE6ADD6AD9CFE9FFDACFEAFF0A0ED8807A
:10254000EE54000EED5401E214D0020EE66EE66A7F
:102550000BDCE552E552DF2A010E01E3DB2A0F0115
:1025600054510F01561904E10F0155510F0157192C
:10257000E1E0DECF10F0DDCF11F00A0E105C000EAE
:10258000115805E3010EF36EF46A09D005D054CF5B
:1025900056FF55CF57FFCCD7F36AF46A00D0020E2E
:1025A000E15C02E2E16AE552E16EE552E7CFD9FF74
:1025B0001200D9CFE6FFE1CFD9FFFD0EDBCFE6FF5A
:1025C000FE0EDBCFE6FF88DFE552E552F3CF10F0D9
:1025D000F4CF11F01050111003E1F36AF46A2AD01D
:1025E000080E0F015425E96E010E0F015521EA6E08
:1025F000EF6A980EE66E460EE66E080EE66E010E67
:10260000E66E26EC1FF0E552E552E552E552F3CFB7
:1026100012F0F4CF13F01250131002E0000E01D0AC
:10262000010E106E116A10BE116810C0F3FF11C0C8
:10263000F4FF00D0E552E7CFD9FF12005AD9E80ED7
:10264000E66E030EE66E48DFE552E552F3CF10F07A
:10265000F4CF11F01050111001E109D0080E0F0154
:102660005425E96E010E0F015521EA6EEF6A120042
:10267000D9CFE6FFE1CFD9FF030EE1269EAA33D0E2
:10268000020EAECFDBFF010EABCFDBFF010EDB5046
:10269000060B28E1080E0F015025E96E010E0F010F
:1026A0005121EA6E020EDBCFEFFF0F01502B000E1F
:1026B00051230F01300E501901E1515103E10F0177
:1026C000506B516B0F01542B000E55230F01300E30
:1026D000541901E1555106E10F01546B556B01018D
:1026E000010E6F6F9E9A030EE15C02E2E16AE55211
:1026F000E16EE552E7CFD9FF1200D9CFE6FFE1CF77
:10270000D9FF020EE126DE6ADD6ADE6ADD6ADECF0F
:1027100010F0DDCF11F0D890115004E6300E105CAF
:10272000000E11580EE2DECFE9FFDDCFEAFF080E02
:10273000E926010EEA22EF6ADF2A010E01E3DB2A15
:10274000E6D70F01546B556B0F01566B576B0F019A
:10275000506B516B0F01526B536B020EE15C02E246
:10276000E16AE552E16EE552E7CFD9FF1200D9CF19
:10277000E6FFE1CFD9FFE652080E0F015225E96EC0
:10278000010E0F015321EA6EEFCFDFFF0F01553528
:1027900004E254510008000E55550DE20F01522B72
:1027A000000E53230F01300E521901E1535103E182
:1027B0000F01526B536BF29E0F01553504E25451D9
:1027C0000008000E555504E20F015407000E555B3A
:1027D000F28EDF5000D0E552E552E7CFD9FF12006C
:1027E0000A0EAD6EAFDC000901E0FCD7AD6AAADCD1
:1027F000000901E0FCD71200D9CFE6FFE1CFD9FFF5
:10280000020EE126DE6ADD6ADECF10F0DDCF11F0C8
:10281000D890115004E6300E105C000E11580EE2F4
:10282000DECFE9FFDDCFEAFF3F0EE926010EEA2207
:10283000EF6ADF2A010E01E3DB2AE6D7DE6ADD6AF2
:10284000FD0EDBCF10F0FE0EDBCF11F0DE501024BA
:10285000F66EDD501120F76E0800F5501FE0FD0EFA
:10286000DBCF10F0FE0EDBCF11F0DE501024F66E41
:10287000DD501120F76E0800F550E66EDECFE9FF5F
:10288000DDCFEAFF3F0EE926010EEA22E552E750CE
:10289000EF6EDF2A010E01E3DB2AD2D7DECFE9FF9C
:1028A000DDCFEAFF3F0EE926010EEA22EF6A21D8CA
:1028B0000D0EAD6E47DC000901E0FCD7020EE15CB5
:1028C00002E2E16AE552E16EE552E7CFD9FF12007C
:1028D000D9CFE6FFE1CFD9FFFD0EDBCFE6FFFE0E3D
:1028E000DBCFE6FF89DFE552E552E552E7CFD9FFBE
:1028F0001200D9CFE6FFE1CFD9FF020EE126DE6A52
:10290000DD6AFBDEDECFE9FFDDCFEAFF3F0EE92621
:10291000010EEA22EF5013E015DC000901E0FCD7BC
:10292000DECFE9FFDDCFEAFF3F0EE926010EEA2206
:10293000EF50AD6EDF2A010E01E3DB2AE3D7A2ECF4
:1029400010F0000901E0FBD700D0020EE15C02E2CA
:10295000E16AE552E16EE552E7CFD9FF1200D9CF27
:10296000E6FFE1CFD9FF020EE126DE68DD68DECFAB
:1029700010F0DDCF11F0D890115004E6030E105C7A
:10298000000E115831E2DF2A010E01E3DB2ACE0EE0
:10299000E66E460EE66E9CDFE552E552E80EE66E08
:1029A000030EE66E99DDE552E552F3CF10F0F4CF59
:1029B00011F01050111001E1DAD7B70EE66E460E95
:1029C000E66E080EE66E010EE66E26EC1FF0E5528E
:1029D000E552E552E552F3CF10F0F4CF11F010506C
:1029E000111001E101D0C3D7DECF10F0DDCF11F01F
:1029F000D890115004E6030E105C000E115806E347
:102A00000101966B010EF36EF46A5FD0DE68DD683B
:102A1000DECF10F0DDCF11F0D890115004E6030E98
:102A2000105C000E115839E28B0EE66E460EE66E13
:102A30004FDFE552E552E80EE66E030EE66E4CDD22
:102A4000E552E552F3CF10F0F4CF11F01050111011
:102A500002E1DED721D0080E0F015425E96E010EE8
:102A60000F015521EA6EEF6A800EE66E460EE66EA5
:102A7000080EE66E010EE66E26EC1FF0E552E552FA
:102A8000E552E552F3CF10F0F4CF11F010501110D1
:102A900002E0BED701D001D0BBD7DECF10F0DDCF32
:102AA00011F0D890115004E6030E105C000E11587E
:102AB00006E30101966B020EF36EF46A06D0010183
:102AC000010E966FF36AF46A00D0020EE15C02E236
:102AD000E16AE552E16EE552E7CFD9FF1200D9CFA6
:102AE000E6FFE1CFD9FF020EE126DE6ADD6A790E4C
:102AF000E66E460EE66EECDEE552E552E80EE66E58
:102B0000030EE66E56DDE552E552F3CF10F0F4CF3A
:102B100011F01050111004E1010EDE6EDD6AD3D108
:102B2000080E0F015425E96E010E0F015521EA6EC2
:102B3000EF6ADE6ADD6A0101846B856B0F0E0101AD
:102B400085AF02D0D89003D0845D000E855951E244
:102B5000DECFE9FFDDCFEAFF080EE926010EEA220B
:102B6000EF5047E0DECFE9FFDDCFEAFF080EE926B0
:102B7000010EEA22EFCF10F0300EE76E1018E8AE2B
:102B800002D0E73402D0E750105C2EE3DECFE9FF3D
:102B9000DDCFEAFF080EE926010EEA22EFCF11F0A1
:102BA000390EE76E1118E8AE02D0113403D0E750A9
:102BB000D880115419E3DECFE9FFDDCFEAFF080E1C
:102BC000E926010EEA22EF50E66E860E0101842509
:102BD000E96E010E01018521EA6EE552E750EF6EC4
:102BE0000101842B000E8523DF2A010E01E3DB2A7D
:102BF000A5D70F0E010185AF02D0D89003D0845D18
:102C0000000E855904E2020EDE6EDD6A5CD1860E8E
:102C100001018425E96E010E01018521EA6EEF6A4A
:102C2000860EE66E010EE66EC0EC21F0E552E5522E
:102C3000570EE66E460EE66E4BDEE552E552E80EA6
:102C4000E66E030EE66EB5DCE552E552F3CF10F00A
:102C5000F4CF11F01050111004E1030EDE6EDD6AA6
:102C600032D13F0EE66E460EE66E32DEE552E5529A
:102C7000E80EE66E030EE66E9CDCE552E552F3CFFD
:102C800010F0F4CF11F01050111004E1040EDE6EBC
:102C9000DD6A19D1360EE66E460EE66E19DEE55295
:102CA000E552B80EE66E0B0EE66E83DCE552E55299
:102CB000F3CF10F0F4CF11F01050111004E1050E15
:102CC000DE6EDD6A00D18B0EE66E460EE66E00DE2D
:102CD000E552E552E80EE66E030EE66E6CEC12F07D
:102CE000E552E552F3CF10F0F4CF11F0105011106F
:102CF00023E0080E0F015425E96E010E0F01552146
:102D0000EA6EEF6A240EE66E460EE66E080EE66E7A
:102D1000010EE66E26EC1FF0E552E552E552E55253
:102D2000F3CF10F0F4CF11F01050111004E0060EA4
:102D3000DE6EDD6AC8D004D0060EDE6EDD6AC3D05A
:102D40001B0EE66E460EE66EC3DDE552E552E80E5A
:102D5000E66E030EE66E6CEC12F0E552E552F3CF30
:102D600010F0F4CF11F01050111012E0080E0F0106
:102D70005425E96E010E0F015521EA6EEF6A080E27
:102D8000E66E010EE66EC0EC21F0E552E55204D08D
:102D9000070EDE6EDD6A97D0040EE66E460EE66E16
:102DA00097DDE552E552E80EE66E030EE66ED9ECCD
:102DB00012F0E552E552F3CF10F0F4CF11F01050BD
:102DC000111004E1080EDE6EDD6A7DD0D90EE66ECC
:102DD000450EE66E7DDDE552E552D00EE66E070E3D
:102DE000E66E6CEC12F0E552E552F3CF10F0F4CF42
:102DF00011F01050111023E0080E0F015425E96E58
:102E0000010E0F015521EA6EEF6A800EE66E460E46
:102E1000E66E080EE66E010EE66E26EC1FF0E55239
:102E2000E552E552E552F3CF10F0F4CF11F0105017
:102E3000111004E0090EDE6EDD6A45D004D0090EE3
:102E4000DE6EDD6A40D08B0EE66E460EE66E40DD2D
:102E5000E552E552E80EE66E030EE66E6CEC12F0FB
:102E6000E552E552F3CF10F0F4CF11F010501110ED
:102E700023E0080E0F015425E96E010E0F015521C4
:102E8000EA6EEF6A800EE66E460EE66E080EE66E9D
:102E9000010EE66E26EC1FF0E552E552E552E552D2
:102EA000F3CF10F0F4CF11F01050111004E00A0E1F
:102EB000DE6EDD6A08D004D00A0EDE6EDD6A03D055
:102EC000F36AF46A46D0DECFE6FFDDCFE6FFC40E3C
:102ED000E66E450EE66E1B0EE66E0F0EE66E1AEC03
:102EE0001AF0106E060EE15E10501B0EE66E0F0E0D
:102EF000E66EC0EC21F0E552E552640EE66EE66A3D
:102F0000B4EC0EF0E552E552B80EE66E450EE66EF4
:102F1000DFDCE552E552640EE66EE66AB4EC0EF0D4
:102F2000E552E552AD0EE66E450EE66ED1DCE55299
:102F3000E552640EE66EE66AB4EC0EF0E552E55238
:102F4000DECF10F0DDCF11F010C0F3FF11C0F4FFA1
:102F500000D0020EE15C02E2E16AE552E16EE55268
:102F6000E7CFD9FF1200D9CFE6FFE1CFD9FF020E9C
:102F7000E126A20EE66E450EE66E3EDCE552E55217
:102F8000E80EE66E030EE66E6CEC12F0E552E552CA
:102F9000F3CF10F0F4CF11F01050111001E127D150
:102FA000080E0F015425E96E010E0F015521EA6E3E
:102FB000EF6AA00EE66E450EE66E080EE66E010E96
:102FC000E66E26EC1FF0E552E552E552E552F3CFEE
:102FD00010F0F4CF11F0105011100BE01A0EAD6E7E
:102FE000A2EC10F0000901E0FBD7020EF36EF46AC8
:102FF00005D1F40EE66E010EE66EB4EC0EF0E5526D
:10300000E552DE6ADD6ADECF10F0DDCF11F0D89038
:10301000115004E60F0E105C000E11581AE2DECFBC
:10302000E9FFDDCFEAFF860EE926010EEA22EF5026
:10303000E66EDECFE9FFDDCFEAFF3F0EE926010EA7
:10304000EA22E552E750EF6EDF2A010E01E3DB2AA8
:10305000DAD7DECFE9FFDDCFEAFF3F0EE926010E2A
:10306000EA22390EEF6ED9CFE9FFDACFEAFFEE2A76
:10307000000EED22EECFF3FFEDCFF4FFF3CFE9FF2B
:10308000F4CFEAFF3F0EE926010EEA22FE0EDBCF67
:10309000EFFFD950FC0FE96EFF0EDA20EA6EEE501A
:1030A000ED1044E0D950FA0FE96EFF0EDA20EA6E17
:1030B000EE50ED103BE0DF2A010E01E3DB2A0101B7
:1030C000846B856BFA0EDBCF10F0FB0EDBCF11F0BB
:1030D000010185511118E8AE02D0113404D010500E
:1030E000845D1150855922E2FC0EDB5001018425DC
:1030F0000F01E96EFD0EDB50010185210F01EA6E23
:10310000EF50E66EDECFE9FFDDCFEAFF3F0EE926A6
:10311000010EEA22E552E750EF6EDF2A010E01E3CD
:10312000DB2A0101842B000E8523CCD7D9CFE9FF00
:10313000DACFEAFFEE2A000EED22EECFF3FFEDCF5D
:10314000F4FFF3CFE9FFF4CFEAFF3F0EE926010ECB
:10315000EA22EF6A79EC14F01A0EAD6EA2EC10F0D0
:10316000000901E0FBD7E80EE66E030EE66E6CEC9C
:1031700012F0E552E552F3CF10F0F4CF11F01050F9
:1031800011100BE11A0EAD6EA2EC10F0000901E077
:10319000FBD7030EF36EF46A31D0080E0F015425ED
:1031A000E96E010E0F015521EA6EEF6A980EE66E88
:1031B000450EE66E080EE66E010EE66E26EC1FF07A
:1031C000E552E552E552E552F3CF10F0F4CF11F09D
:1031D000105011100BE01A0EAD6EA2EC10F00009A9
:1031E00001E0FBD7040EF36EF46A08D004D0010EA0
:1031F000F36EF46A03D0F36AF46A00D0020EE15C65
:1032000002E2E16AE552E16EE552E7CFD9FF120032
:10321000D9CFE6FFE1CFD9FF0101965104E10A0EB3
:10322000F36EF46A40D0080EE66EE66AFD0EDBCF60
:10323000E6FFFE0EDBCFE6FF310EE66E94DE106E8B
:10324000050EE15E1050F3CF84F1F4CF85F101015A
:10325000845185111BE084C1E6FF85C1E6FF800E25
:10326000E66E450EE66E1B0EE66E0F0EE66E1AEC6F
:103270001AF0106E060EE15E10501B0EE66E0F0E79
:10328000E66EC0EC21F0E552E55208D0740EE66E11
:10329000450EE66E73EC21F0E552E55284C1F3FF72
:1032A00085C1F4FF00D0E552E7CFD9FF120001013C
:1032B000965104E10A0EF36EF46A0ED0000EE66E2B
:1032C000E66A000EE66EE66A300EE66E4CDE106EC2
:1032D000050EE15E105000D01200D9CFE6FFE1CF1D
:1032E000D9FF0101965104E10A0EF36EF46A44D04D
:1032F000FA0EDBCFE6FFFB0EDBCFE6FFFC0EDBCFEB
:10330000E6FFFD0EDBCFE6FFFE0EDBCFE6FF2BDE9A
:10331000106E050EE15E1050F3CF84F1F4CF85F10D
:103320000101845185111BE084C1E6FF85C1E6FFE0
:103330005B0EE66E450EE66E1B0EE66E0F0EE66E3B
:103340001AEC1AF0106E060EE15E10501B0EE66EBF
:103350000F0EE66EC0EC21F0E552E55208D04E0E9D
:10336000E66E450EE66E73EC21F0E552E55284C13F
:10337000F3FF85C1F4FF00D0E552E7CFD9FF12007B
:10338000D9CFE6FFE1CFD9FF0101965104E10A0E42
:10339000F36EF46A40D0040EE66EE66AFD0EDBCFF3
:1033A000E6FFFE0EDBCFE6FF370EE66EDCDD106ECD
:1033B000050EE15E1050F3CF84F1F4CF85F10101E9
:1033C000845185111BE084C1E6FF85C1E6FF370EFD
:1033D000E66E450EE66E1B0EE66E0F0EE66E1AECFE
:1033E0001AF0106E060EE15E10501B0EE66E0F0E08
:1033F000E66EC0EC21F0E552E55208D02C0EE66EE8
:10340000450EE66E73EC21F0E552E55284C1F3FF00
:1034100085C1F4FF00D0E552E7CFD9FF1200D9CF24
:10342000E6FFE1CFD9FFF36AF46A00D0E552E7CFB7
:04343000D9FF1200AE
:0C343400D9CFE6FFE1CFD9FF350EE1262D
:10344000250EDB6A290EDB6A2A0EDB6A2B0EDB6A8D
:103450002C0EDB6A2D0EDB6A2E0EDB6A2F0EDB6A6A
:10346000300EDB6A310EDB6AD950FB0F106EFF0E97
:10347000DA20116E270E10C0DBFF280E11C0DBFF13
:10348000FB0EDBCFF6FFDB2AFC0EDBCFF7FF01E301
:10349000DB2A0800200EF5CFDBFFF550250818E0E9
:1034A000200EDB5008E1FD0EDBCFE9FFFE0EDBCF87
:1034B000EAFFEF6AF2D2FD0EDBCFE9FFDB2AFE0E58
:1034C000DBCFEAFF01E3DB2A200EDBCFEFFFD8D70B
:1034D000250EDB6A0A0EF36E210EF3CFDBFF220E00
:1034E000DB6AFB0EDBCFF6FFDB2AFC0EDBCFF7FF40
:1034F00001E3DB2A0800200EF5CFDBFF330EDB6A89
:10350000320EDB6A200EDB50300804E0200EDB5068
:1035100020085AE1200EDB50E76E320EE7CFDBFFCA
:10352000FB0EDBCFF6FFDB2AFC0EDBCFF7FF01E360
:10353000DB2A0800200EF5CFDBFF300EF36E200EE5
:10354000DBCFF4FFF350F45C18E3200EDB503908B6
:1035500014E3200EDB50D00FE76E330EE7CFDBFF16
:10356000FB0EDBCFF6FFDB2AFC0EDBCFF7FF01E320
:10357000DB2A0800200EF5CFDBFF300EF36E200EA5
:10358000DBCFF4FFF350F45C1FE3200EDB5039086F
:103590001BE3200EDBCFE6FF330EDB500A0DF350AA
:1035A000E552E724D00FE76E330EE7CFDBFFFB0ECB
:1035B000DBCFF6FFDB2AFC0EDBCFF7FF01E3DB2AD4
:1035C0000800200EF5CFDBFF290EDB6A200EDB5052
:1035D0006C0804E0200EDB504C0812E1010EF36E83
:1035E000290EF3CFDBFFFB0EDBCFF6FFDB2AFC0E51
:1035F000DBCFF7FF01E3DB2A0800200EF5CFDBFF6E
:10360000200EDB50780A01E17ED0200A01E17BD058
:103610002D0A01E177D0200A75E03C0A6EE0200A0D
:103620006CE02D0A6AE0200A68E0170A2BE0200A05
:1036300029E0100A03E0200A01E017D0270EDBCFB3
:1036400010F0280EDBCF11F0020E105E000E115AA2
:10365000270E10C0DBFF280E11C0DBFF10C0E9FFF2
:1036600011C0EAFF200EEFCFDBFFFD0EDBCFE9FF3D
:10367000DB2AFE0EDBCFEAFF01E3DB2A200EDBCFE5
:10368000EFFF0AD2270EDBCF10F0280EDBCF11F0B0
:10369000020E105E000E115A270E10C0DBFF280E1E
:1036A00011C0DBFF10C0E9FF11C0EAFF230EEECF0F
:1036B000DBFF240EEDCFDBFF230EDBCFE9FF240E73
:1036C000DBCFEAFFEF5018E0230EDBCFE9FFDB2A68
:1036D000240EDBCFEAFF01E3DB2AEF50E66EFD0E9E
:1036E000DBCFE9FFDB2AFE0EDBCFEAFF01E3DB2ABB
:1036F000E552E750EF6EE0D7CFD1010EF36E250E05
:10370000F3CFDBFF07D0100EF36E210EF3CFDBFFFC
:10371000220EDB6A250EDB5001E19CD0290EDB5026
:1037200021E0270EDBCF10F0280EDBCF11F0040EC6
:10373000105E000E115A270E10C0DBFF280E11C0BC
:10374000DBFF10C0E9FF11C0EAFF2E0EEECFDBFF5A
:103750002F0EEECFDBFF300EEECFDBFF310EEECFC4
:10376000DBFF2AD0270EDBCF14F0280EDBCF15F0BD
:10377000020E145E000E155A270E14C0DBFF280E31
:1037800015C0DBFF14C0E9FF15C0EAFFEECF10F053
:10379000EFCF11F0126A136A11AE02D012681368EB
:1037A0002E0E10C0DBFF2F0E11C0DBFF300E12C03B
:1037B000DBFF310E13C0DBFFD9502E0FE96EDACFDD
:1037C000EAFFD890030EEB50000A08E6000EEE5C0C
:1037D000000EEE58000EEE58000EEE5829E22E0EA6
:1037E000DBCF04F02F0EDBCF05F0300EDBCF06F081
:1037F000310EDBCF07F009680A680B680C689FEC94
:1038000028F02E0E00C0DBFF2F0E01C0DBFF300EB4
:1038100002C0DBFF310E03C0DBFFFD0EDBCFE9FF93
:10382000DB2AFE0EDBCFEAFF01E3DB2A2D0EEF6E73
:10383000D9502E0FE96EDACFEAFF2A0EEECFDBFF6A
:103840002B0EEECFDBFF2C0EEECFDBFF2D0EEECFDF
:10385000DBFF46D0290EDB5021E0270EDBCF10F036
:10386000280EDBCF11F0040E105E000E115A270E49
:1038700010C0DBFF280E11C0DBFF10C0E9FF11C034
:10388000EAFF2A0EEECFDBFF2B0EEECFDBFF2C0E76
:10389000EECFDBFF2D0EEECFDBFF22D0270EDBCFEE
:1038A00012F0280EDBCF13F0020E125E000E135A38
:1038B000270E12C0DBFF280E13C0DBFF12C0E9FF8A
:1038C00013C0EAFFEECF10F0EFCF11F02A0E10C0B8
:1038D000DBFF2B0E11C0DBFF2C0EDB6A2D0EDB6A2B
:1038E000D950060F106EDACF11F0230E10C0DBFF97
:1038F000240E11C0DBFF230EDB06DBCFE9FF240E15
:1039000001E2DB06DBCFEAFFEF6A210EDBCF14F02A
:10391000220EDBCF15F0166A176A14C009F015C025
:103920000AF016C00BF017C00CF02A0EDBCF04F023
:103930002B0EDBCF05F02C0EDBCF06F02D0EDBCFF0
:1039400007F009EC29F000C010F001C011F002C02E
:1039500012F003C013F0300E1026000E1122000EDC
:103960001222000E1322340E10C0DBFF340EDB5087
:10397000390814E2270E106E340EDBCFE7FF10502B
:10398000E726340EE7CFDBFF200E106E340EDBCFC0
:10399000E7FF1050E75E340EE7CFDBFF230EDB06B8
:1039A000DBCFE9FF240E01E2DB06DBCFEAFF340EBA
:1039B000DBCFEFFF210EDBCF10F0220EDBCF11F0BB
:1039C000126A136AD9502A0FE96EDACFEAFF10C0E3
:1039D00009F011C00AF012C00BF013C00CF0EECFCA
:1039E00004F0EECF05F0EECF06F0EFCF07F009ECD4
:1039F00029F007C0EDFF06C0EDFF05C0EDFF04C0D4
:103A0000EFFF330EDB5002E0330EDB062A0EDBCF76
:103A100010F02B0EDBCF11F02C0EDBCF12F02D0EA1
:103A2000DBCF13F0105011101210131001E06DD7FE
:103A3000330EDBCFF3FFDB06F35000090DE0230E5E
:103A4000DB06DBCFE9FF240E01E2DB06DBCFEAFF7A
:103A5000320EDBCFEFFFECD7230EDBCFE9FF240ED6
:103A6000DBCFEAFFEF5018E0230EDBCFE9FFDB2AC4
:103A7000240EDBCFEAFF01E3DB2AEF50E66EFD0EFA
:103A8000DBCFE9FFDB2AFE0EDBCFEAFF01E3DB2A17
:103A9000E552E750EF6EE0D7F3D4350EE15C02E279
:103AA000E16AE552E16EE552E7CFD9FF1200D9CFC6
:103AB000E6FFE1CFD9FFE652FE0EDB380F0B0F0B0E
:103AC000DF6EDFCF10F0090EE76E1018E8AE02D0FF
:103AD000103403D0E750D880105402E2070EDF26DE
:103AE000300EDF24E66EFC0EDBCFE9FFFD0EDBCFF0
:103AF000EAFFE552E750EF6EFE0EDB500F0BDF6E74
:103B0000DFCF10F0090EE76E1018E8AE02D01034C7
:103B100003D0E750D880105402E2070EDF26FC0ED7
:103B2000DB2AFD0E01E3DB2A300EDF24E66EFC0EFD
:103B3000DBCFE9FFFD0EDBCFEAFFE552E750EF6E8A
:103B4000FC0EDB2AFD0E01E3DB2AFC0EDBCFE9FFD6
:103B5000FD0EDBCFEAFFEF6AE552E552E7CFD9FF72
:103B60001200D9CFE6FFE1CFD9FFFB0EDBCFF6FF86
:103B7000DB2AFC0EDBCFF7FF01E3DB2A0800F55060
:103B8000E66EFD0EDBCFE9FFDB2AFE0EDBCFEAFFA0
:103B900001E3DB2AE552E750EF6E01E0E6D7FD0EC8
:103BA000DBCF10F0FE0EDBCF11F010C0F3FF11C021
:103BB000F4FF00D0E552E7CFD9FF1200D9CFE6FFDE
:103BC000E1CFD9FFFB0EDBCFE9FFDB2AFC0EDBCF19
:103BD000EAFF01E3DB2AEF50E66EFD0EDBCFE9FFE3
:103BE000DB2AFE0EDBCFEAFF01E3DB2AE552E750DA
:103BF000EF6E01E0E7D7FD0EDBCF10F0FE0EDBCF5E
:103C000011F010C0F3FF11C0F4FF00D0E552E7CF70
:103C1000D9FF1200D9CFE6FFE1CFD9FF020EE1268E
:103C2000FD0EDBCFDEFFDBCFDDFFD950FD0FE96EF0
:103C3000FF0EDA20EA6EEE50ED1009E0D950FB0FCE
:103C4000E96EFF0EDA20EA6EEE50ED100BE1FD0E8C
:103C5000DBCF10F0FE0EDBCF11F010C0F3FF11C070
:103C6000F4FF30D0FD0EDBCFE9FFFE0EDBCFEAFF25
:103C7000EF5006E0FD0EDB2AFE0E01E3DB2AF2D751
:103C8000FB0EDBCFE9FFDB2AFC0EDBCFEAFF01E313
:103C9000DB2AEF50E66EFD0EDBCFE9FFDB2AFE0EDE
:103CA000DBCFEAFF01E3DB2AE552E750EF6E01E0EC
:103CB000E7D7DECF10F0DDCF11F010C0F3FF11C059
:103CC000F4FF00D0020EE15C02E2E16AE552E16E2F
:103CD000E552E7CFD9FF1200D9CFE6FFE1CFD9FFF8
:103CE000020EE126FD0EDBCFDEFFDBCFDDFFD9507C
:103CF000FD0FE96EFF0EDA20EA6EEE50ED1009E0DE
:103D0000D950FB0FE96EFF0EDA20EA6EEE50ED108F
:103D10000BE1FD0EDBCF10F0FE0EDBCF11F010C07B
:103D2000F3FF11C0F4FF31D0FD0EDBCFE9FFFE0E33
:103D3000DBCFEAFFEF5006E0FD0EDB2AFE0E01E3CB
:103D4000DB2AF2D7FB0EDBCFF6FFDB2AFC0EDBCF44
:103D5000F7FF01E3DB2A0800F550E66EFD0EDBCF2E
:103D6000E9FFDB2AFE0EDBCFEAFF01E3DB2AE552A7
:103D7000E750EF6E01E0E6D7DECF10F0DDCF11F0B7
:103D800010C0F3FF11C0F4FF00D0020EE15C02E2AC
:103D9000E16AE552E16EE552E7CFD9FF1200D9CFD3
:103DA000E6FFE1CFD9FF020EE126DE6ADD6AFD0EF5
:103DB000DBCFF6FFDB2AFE0EDBCFF7FF01E3DB2ACA
:103DC0000800F55005E0DF2A010E01E3DB2AEFD7FA
:103DD000DECF10F0DDCF11F010C0F3FF11C0F4FF03
:103DE00000D0020EE15C02E2E16AE552E16EE552CA
:103DF000E7CFD9FF1200D9CFE6FFE1CFD9FF020EFE
:103E0000E126DE6ADD6AFD0EDBCFE9FFDB2AFE0E6E
:103E1000DBCFEAFF01E3DB2AEF5005E0DF2A010EEA
:103E200001E3DB2AF0D7DECF10F0DDCF11F010C0B8
:103E3000F3FF11C0F4FF00D0020EE15C02E2E16A80
:103E4000E552E16EE552E7CFD9FF1200D9CFE6FF88
:103E5000E1CFD9FFE652DF6AFD0EDBCFE9FFFE0EB0
:103E6000DBCFEAFFEF5038E0FB0EDBCFF6FFFC0EB6
:103E7000DBCFF7FF0800F5CF10F0FD0EDBCFE9FF39
:103E8000FE0EDBCFEAFFEF50105C1AE1010EDF6E91
:103E9000010EE76EFB0EDBCFF6FFFC0EDBCFF7FF6C
:103EA000E750F626000EF7220800F55003E1F36A0A
:103EB000F46A16D0FB0EDB2AFC0E01E3DB2A06D0E7
:103EC000DF5004E0010EF36EF46A0AD0FD0EDB2A27
:103ED000FE0E01E3DB2AC0D7010EF36EF46A00D0B8
:0A3EE000E552E552E7CFD9FF1200CA
:063EEA00D9CFE6FFE1CF95
:103EF000D9FFE6526C6A6B6A7C6A7C86960E6B6EA2
:103F0000260E6C6EFD0EDB506F6EFD0EDBCF10F0DB
:103F1000FE0EDBCF11F011C010F0116A10507D6E53
:103F2000A58AA588A38AA388A4986E5002018F6FE2
:103F3000906B0201076B2ED802018F6B906B300ED5
:103F4000020190AF02D0D89003D08F5D000E90593F
:103F50000EE2080E02018F25E96E020E0201902189
:103F6000EA6EEF6A02018F2B000E9023E8D70F0153
:103F7000E80E0D6F030E0E6F0F6B106BB80EE66E32
:103F8000470EE66EB0D9E552E552E552E552E7CF6D
:103F9000D9FF120001C203F202C204F20201016B56
:103FA000026B0201080E3B6F020E3C6FA49A0201E5
:103FB000396B1200D9CFE6FFE1CFD9FF020EE1261F
:103FC0004D0E0201085D01E0BDD03A0E0201095D0F
:103FD00001E07FD0DE6ADD6ADECFE9FFDDCFEAFFF8
:103FE000020EE926000EEA22080EE926020EEA2257
:103FF000EF501EE0DECFE9FFDDCFEAFF020EE9263B
:10400000000EEA22080EE926020EEA22EF50E66EC2
:10401000DECFE9FFDDCFEAFF3F0EE926010EEA22FF
:10402000E552E750EF6EDF2A010E01E3DB2AD4D719
:10403000DECFE9FFDDCFEAFF3F0EE926010EEA22DF
:10404000EF6A79EC14F0DECFE9FFDDCFEAFF030E73
:10405000E926000EEA22080EE926020EEA22EF50B7
:104060001A080CE11A0EAD6EA2EC10F0F3CF10F0AE
:10407000F4CF11F01050111001E0F6D7E80EE66E03
:10408000030EE66E6CEC12F0E552E552F3CF10F041
:10409000F4CF11F0105011100BE1A90EE66E470E8F
:1040A000E66E21D9E552E552010EF36EF46A4DD069
:1040B000080E0F015425E96E010E0F015521EA6E1D
:1040C000EF6A080EE66E010EE66E5AD9E552E55229
:1040D00039D00201090516E10BC210F0116A10BEB9
:1040E000116810C0E6FF11C0E6FF0C0EE66E020E6E
:1040F000E66E0AC2E6FF6DEC19F0126E050EE15E87
:10410000125020D0020E0201095D09E10A0EE66E8E
:10411000020EE66EC0EC19F0E552E55213D0030E24
:104120000201095D09E10A0EE66E020EE66E08EC78
:1041300019F0E552E55206D0040E0201095D02E1D4
:1041400057EC19F0F36AF46A00D0020EE15C02E267
:10415000E16AE552E16EE552E7CFD9FF1200D9CF0F
:10416000E6FFE1CFD9FF000E00D0E552E7CFD9FF3F
:104170001200D9CFE6FFE1CFD9FFE65202013AA5FE
:1041800025D06B98A39AA49A02013A9302013A951A
:1041900001C2E6FF02C2E6FFE2DFE552E55202019C
:1041A000076F020107510AE002013A870F01320E40
:1041B000096F0A6B0B6B0C6BEDDE36D0FBDEF3CFB9
:1041C00007F2E8DE6B88A38AA49A2ED002013AA7F0
:1041D00019D06B98A39AA49A02013A930F0109513E
:1041E0000A110B110C110DE16E50DF6E02013A97AE
:1041F00002013A93CFDE07C2E6FF54D8E55202012E
:10420000076B12D002013AA30FD00F0109510A1116
:104210000B110C1109E16B98A39AA49A02013A932D
:1042200002013A9302013A85E552E552E7CFD9FF00
:104230001200D9CFE6FFE1CFD9FFE652010EDF6EC3
:10424000DF5004E00400A4B8DF6AFAD7A498E5526E
:10425000E552E7CFD9FF120002010551061109E02E
:1042600002013F0E3D6F020E3E6FA388A4986CA220
:10427000FED71200D9CFE6FFE1CFD9FF030EE1262A
:10428000010EDB6AFA0EDB50300801E201D0E4DFF8
:10429000030EE15C02E2E16AE552E16EE552E7CF2E
:1042A000D9FF1200D9CFE6FFE1CFD9FF030EE126F7
:1042B00002013AB10ED0E66A000EE66EE66AFE0E24
:1042C000DBCFE6FF450EE66ED5DF106E050EE15E34
:1042D0001050030EE15C02E2E16AE552E16EE55244
:1042E000E7CFD9FF1200D9CFE6FFE1CFD9FFFD0E0E
:1042F000DBCFE6FFFE0EDBCFE6FFCFEC1EF0E55294
:10430000E552F3CF05F2F4CF06F202010551061192
:1043100033E002018F6B906B02019051020106198C
:10432000E8AE02D0063507D0055102018F5D0201CB
:104330000651020190591FE2FD0EDB5002018F254C
:104340000F01F66EFE0EDB50020190210F01F76E99
:104350000800F550E66E3F0E02018F25E96E020E51
:1043600002019021EA6EE552E750EF6E02018F2BB9
:10437000000E9023D1D770DFE552E7CFD9FF1200AE
:10438000D9CFE6FFE1CFD9FFFD0EDBCFE6FFFE0E72
:10439000DBCFE6FFFBEC1EF0E552E552F3CF05F272
:1043A000F4CF06F20201055106113BE002018F6BCA
:1043B000906B0201905102010619E8AE02D0063559
:1043C00007D0055102018F5D02010651020190598B
:1043D0001EE2FD0EDB5002018F250F01E96EFE0E7D
:1043E000DB50020190210F01EA6EEF50E66E3F0EA6
:1043F00002018F25E96E020E02019021EA6EE5525C
:10440000E750EF6E02018F2B000E9023D2D73F0EA4
:1044100002018F25E96E020E02019021EA6EEF6A19
:104420001BDFE552E7CFD9FF1200D9CFE6FFE1CF7E
:10443000D9FFE652E66A000EE66EE66AFE0EDBCFB4
:10444000E6FF440EE66E16DF106E050EE15E1050BC
:10445000E552E552E7CFD9FF1200D9CFE6FFE1CF11
:10446000D9FFE652A4AA39D0A49A6ECF00F26BA469
:1044700008D002013A9302013A876B980201050EB7
:10448000076F6BA20BD06B986B8802013A93020105
:104490003A876B980201050E076F1ED002013A831E
:1044A00002013BC2E9FF3CC2EAFF3B2B000E3C236A
:1044B00000C2EFFF010E0201EA6A3B25E96E3C51A2
:1044C000EA22EF6A0201012B000E02230F010A0EFD
:1044D000096F0A6B0B6B0C6B22D0A4A820D0A49898
:1044E00002010551061113E002013D513E110FE09A
:1044F00002013DC2E9FF3EC2EAFF3D2B000E3E2312
:10450000EF506D6E02010507000E065B08D0A39800
:10451000A49802013D6B3E6B6B88A38AA49AE55276
:0C452000E552E7CFD9FF120024DE1200A4
:04452C00434944209B
:1045300073656E646564004349442073656E646509
:1045400064204552524F523A2564210D0A00414CD5
:1045500041524D2073656E64656400414C41524D7B
:104560002073656E646564204552524F523A25644B
:10457000210D0A00494E49542073656E646564003C
:10458000494E49542073656E646564204552524F0C
:10459000523A2564210D0A0053454E44204F4B00EA
:1045A0003E0041542B43495053454E440041542B47
:1045B000434950534855540041542B434950434CB0
:1045C0004F53450073657453494D33303020455285
:1045D000524F523A25640D0A0041542B434950531F
:1045E000544152543D22554450222C223139352E0B
:1045F00035362E3131312E313933222C22353335B7
:104600003030220041542B434C504F52543D2255E0
:104610004450222C2233303330220041542B434962
:104620004653520053544154453A20495020475074
:1046300052534143540041542B4349494352004192
:10464000542B435354543D22524544465245442E24
:1046500047522E4855220041542B434744434F4E66
:10466000543D312C224950222C2252454446524579
:10467000442E47522E4855220041542B47534E009A
:10468000434F4E4E454354204F4B0041542B43491A
:1046900050535441545553004F4B0041542B4350F9
:1046A000494E3F0047534D2057414954494E475FBB
:1046B000323A25640D0A00302C310047534D205703
:1046C000414954494E475F313A25640D0A0041542F
:1046D0002B435245473F00415445300047534D203E
:1046E00057414954494E475F303A25640D0A004707
:1046F000534D20696E69742073746172740D0A00E1
:104700004750525320414C4956452053454E44454D
:1047100044210047505253204641494C3A25640DEC
:104720000A0053494D33303030204641494C3A2538
:10473000640D0A004750525320414C4956452053BE
:10474000454E44454420494E495421004750525358
:1047500020414C4956452053454E44204641494C42
:104760003A25640D0A0047534D2D475052532020DF
:10477000696E6974205245414459210D0A00475021
:10478000525320696E6974204552524F523A256443
:10479000210D0A0047534D20696E6974204552521D
:1047A0004F523A2564210D0A0053494D2D2D4641A3
:1047B000494C4552210D0A0050432D555341525446
:1047C0003220696E6974205245414459210D0A0016
:1047D0004F4646484F4F4B0D0A004F4E484F4F4BE8
:1047E0000D0A00696E745F4431393A307825780AD1
:1047F0000D0044544D463A25730D0A004925643A8C
:1048000000534C494320496E6469726563742052B9
:1048100065672E0D0A00307825780D0A004425645E
:104820003A00534C494320446972656374205265D1
:10483000672E0D0A00534C49433A496E6974205261
:10484000454144590D0A00534C49433A43616C2E8B
:104850004F4B450D0A00534C49433A6F66662D682D
:104860006F6F6B204552524F520D0A00534C494313
:104870003A544950204761696E2043616C2E4F4B7A
:10488000450D0A00534C49433A4D616E75616C20E9
:1048900043616C204241443A307825780A0D005338
:1048A0004C49433A4D616E75616C2043616C2E4FEB
:1048B0004B450D0A00534C49433A44432D44432091
:1048C0004F4B450D0A00504F57455220555020453B
:1048D00052524F522C20504F57455220444F574E62
:1048E0000A0D00534C49433A696E646972656374FA
:1048F0005265672E2057523A4F4B0D0A00494E49D8
:1049000054204552524F522C20504F57455220446C
:104910004F574E0A0D00534C49433A6E6F74206353
:104920006F6D6D2E7265672031313A4552524F528C
:104930000D0A00534C49433A6E6F7420636F6D6DDE
:104940002E72656720383A4552524F520D0A005375
:104950004C49435F73657269616C3A307825780A17
:104960000D00534C49433A52435F43414C5F544915
:104970004D454F55540D0A00534C49433A52435F3D
:10498000564241545F55505F54494D454F55543A36
:104990004552524F520D0A00534C49433A52435F1D
:1049A000564241545F4F55545F4F465F52414E4708
:1049B000453A4552524F520D0A0033353638393593
:0A49C0003033393830343030330022
:0649CA00D9CFE6FFE1CFAA
:1049D000D9FF020EE126DE6ADD6ADECF10F0DDCF00
:1049E00011F0D890115004E6240E105C000E1158FE
:1049F0000EE2DECFE9FFDDCFEAFFB70EE926010EBA
:104A0000EA22EF6ADF2A010E01E3DB2AE6D7010181
:104A1000C40EB76F0101D70EB86FFE0EDB5006E172
:104A20000101310EBF6F0101380EC06FDE6ADD6A11
:104A3000DECF10F0DDCF11F0D890115004E60F0E4C
:104A4000105C000E115821E2DE500001FE250F011E
:104A5000F66EDD500001FF210F01F76E0800F550E2
:104A6000E66EDECFE9FFDDCFEAFF140EE926000E89
:104A7000EA22B70EE926010EEA22E552E750EF6E70
:104A8000DF2A010E01E3DB2AD3D7020EE15C02E24A
:104A9000E16AE552E16EE552E7CFD9FF1200D9CFC6
:104AA000E6FFE1CFD9FF020EE1260101CA6BDE6A03
:104AB000DD6ADECF10F0DDCF11F0D890115004E6A2
:104AC0001B0E105C000E115814E2DECFE9FFDDCFA3
:104AD000EAFF080EE926000EEA22B70EE926010ECB
:104AE000EA22EF500101CA27DF2A010E01E3DB2A87
:104AF000E0D7106E020EE15C02E2E16AE552E16E7F
:104B00001050E552E7CFD9FF1200D9CFE6FFE1CF31
:104B1000D9FF020EE126E66A58DFE5520001FD5199
:104B2000FD2B0101BA6FDE6ADD6ADECF10F0DDCF4A
:104B300011F0D890115004E6040E105C000E1158CC
:104B400022E2FD0EDBCF10F0FE0EDBCF11F0DE50C7
:104B50001024E96EDD501120EA6EEF50E66EDECFD4
:104B6000E9FFDDCFEAFF040EE926000EEA22B70EC8
:104B7000E926010EEA22E552E750EF6EDF2A010E28
:104B800001E3DB2AD2D7DE6ADD6ADECF10F0DDCFAB
:104B900011F0D890115004E6040E105C000E11586C
:104BA00022E2FB0EDBCF10F0FC0EDBCF11F0DE506B
:104BB0001024E96EDD501120EA6EEF50E66EDECF74
:104BC000E9FFDDCFEAFF0A0EE926000EEA22B70E62
:104BD000E926010EEA22E552E750EF6EDF2A010EC8
:104BE00001E3DB2AD2D7DE6ADD6ADECF10F0DDCF4B
:104BF00011F0D890115004E6020E105C000E11580E
:104C000022E2F90EDBCF10F0FA0EDBCF11F0DE500E
:104C10001024E96EDD501120EA6EEF50E66EDECF13
:104C2000E9FFDDCFEAFF0E0EE926000EEA22B70EFD
:104C3000E926010EEA22E552E750EF6EDF2A010E67
:104C400001E3DB2AD2D7DE6ADD6ADECF10F0DDCFEA
:104C500011F0D890115004E6020E105C000E1158AD
:104C600022E2F70EDBCF10F0F80EDBCF11F0DE50B2
:104C70001024E96EDD501120EA6EEF50E66EDECFB3
:104C8000E9FFDDCFEAFF100EE926000EEA22B70E9B
:104C9000E926010EEA22E552E750EF6EDF2A010E07
:104CA00001E3DB2AD2D7FBDEB70E106E010E116EC8
:104CB00010C0F3FF11C0F4FF00D0020EE15C02E26D
:0E4CC000E16AE552E16EE552E7CFD9FF12003E
:024CCE00DACF3B
:104CD000E4FFE2CFDAFFE9CFE4FFEACFE4FFF6CF6B
:104CE000E4FFF7CFE4FFF5CFE4FFF3CFE4FFF4CF29
:104CF000E4FFFACFE4FF00EE00F0100EE80403E357
:104D0000EECFE4FFFBD700EE10F0080EE80403E35B
:104D1000EECFE4FFFBD7E65238EC13F02DEC22F097
:104D2000E55200EE17F0080EE80403E3E5CFEDFFCF
:104D3000FBD700EE0FF0100EE80403E3E5CFEDFF24
:104D4000FBD7E5CFFAFFE5CFF4FFE5CFF3FFE5CFE3
:104D5000F5FFE5CFF7FFE5CFF6FFE5CFEAFFE5CFBB
:104D6000E9FFE5CFDAFF1100D8CFE4FFE0CFE4FFA1
:104D7000E46EDACFE4FFE2CFDAFFE9CFE4FFEACF77
:104D8000E4FFE652F250040B01E0010E186E196ABE
:104D9000010E181801E1195044E10F01196B1A6B4B
:104DA000060E0F011AAF02D0D89003D0195D000E85
:104DB0001A5933E219CFE9FF1ACFEAFFD890E93642
:104DC000EA36D890E936EA36010EE9260F0EEA22D5
:104DD000EECF18F0EECF19F0EECF1AF0EFCF1BF0B8
:104DE000185019101A101B1013E019CFE9FF1ACF31
:104DF000EAFFD890E936EA36D890E936EA36010E6D
:104E0000E9260F0EEA22EE06000EEE5AEE5AEE5A90
:104E10000F01192B000E1A23C3D7DF0ED66EF28AAC
:104E2000F294E552E5CFEAFFE5CFE9FFE5CFDAFFFF
:104E3000E550E5CFE0FFE5CFD8FF100012000F0EE0
:104E4000C112C26ACF0E926E080E936E910E946ECE
:104E5000200E956E040E976ECE0E986ED10E946E47
:104E6000D08E8184800EF16EC60ED56EF194F28ADA
:104E7000F294DF0ED66ED58EF28CF28E0F010A0EF2
:104E8000016F026B036B046B12000F0101510211E1
:104E90000311041119E10F0100A302D08A8001D08F
:104EA0008A900F010F010051020B02E0000E01D0A9
:104EB000010E0F010093E8B000830F01F40E016FA3
:104EC000010E026F036B046B1200B9DFC6EC0FF02A
:104ED000A90EE66E010EE66E75EC1FF0E552E55286
:104EE000DFEC03F0A90EE66E010EE66EF2EC0EF0BA
:104EF000E552E552A3DFC9DF94EC22F011EC0EF08D
:084F0000F3EC0FF0F7D71200EB
:084F0800D9CFE6FFE1CFD9FF8C
:104F1000FC0EDB5011E032D8E66EFD0EDBCFE9FF70
:104F2000DB2AFE0EDBCFEAFF01E3DB2AE552E75086
:104F3000EF6EFC0EDB06ECD7E552E7CFD9FF12008F
:104F4000D9CFE6FFE1CFD9FFFD0EDBCFE9FFFE0EA3
:104F5000DBCFEAFFEF500EE0FD0EDBCFE9FFDB2AEF
:104F6000FE0EDBCFEAFF01E3DB2AEF50C96EC7A0DC
:104F7000FED7EAD7E552E7CFD9FF1200D9CFE6FF37
:104F8000E1CFD9FFE652C950DF6E9E96C96A9EA650
:104F9000FED7C95000D0E552E552E7CFD9FF120045
:104FA000D9CFE6FFE1CFD9FFE652C950DF6E9E961A
:104FB000C69EFE0EDB50C96EC6AE03D0FF0E05D0F6
:104FC00002D09EA6FED7000E00D0E552E552E7CFF4
:104FD000D9FF1200D9CFE6FFE1CFD9FFFC0EDB509D
:104FE00011E032D8E66EFD0EDBCFE9FFDB2AFE0EC4
:104FF000DBCFEAFF01E3DB2AE552E750EF6EFC0E60
:10500000DB06ECD7E552E7CFD9FF1200D9CFE6FF98
:10501000E1CFD9FFFD0EDBCFE9FFFE0EDBCFEAFFCC
:10502000EF500EE0FD0EDBCFE9FFDB2AFE0EDBCFFB
:10503000EAFF01E3DB2AEF50666E64A0FED7EAD7F1
:10504000E552E7CFD9FF1200D9CFE6FFE1CFD9FF74
:10505000E6526650DF6EA49E666AA4AEFED7665026
:1050600000D0E552E552E7CFD9FF1200D9CFE6FFD5
:10507000E1CFD9FFE6526650DF6EA49E639EFE0E1E
:10508000DB50666E63AE03D0FF0E05D002D0A4AE37
:10509000FED7000E00D0E552E552E7CFD9FF12004F
:1050A0002A0EF66E000EF76E000EF86E0001090073
:1050B000F550F86F0900F550F96F03E1F86701D07A
:1050C0003DD00900F550F36F0900F550F46F090069
:1050D000F550F56F09000900F550E96E0900F5502B
:1050E000EA6E090009000900F550F66F0900F55055
:1050F000F76F09000900F6CFFAF0F7CFFBF0F8CF11
:10510000FCF0F3C0F6FFF4C0F7FFF5C0F8FF0001B4
:10511000F65302E1F75307E00900F550EE6EF6078B
:10512000F8E2F707F9D7FAC0F6FFFBC0F7FFFCC0BB
:0E513000F8FF0001F807000EF95BBFD7120070
:02513E0004501B
:105140000902F3CF00F0F4CF01F00A02F350012678
:10515000000EF420026E04500B02F3500226000EE3
:10516000F420036E04500C02F3500326055009028C
:10517000F3500126F4500222000E032205500A02C9
:10518000F3500226F450032205500B02F35003267D
:1051900006500902F3500226F450032206500A0278
:0E51A000F350032607500902F35003261200B5
:0251AE00C255E8
:1051B000E651854B374933330202020298019801C8
:1051C00011060202E5001C0A307B630000007078C3
:1051D0007D0000000000F07E600100000020002043
:1051E0000000001000100010003600108000C00702
:1051F0006F37801B008000800080008000800002EC
:10520000000C0000000EDA00606B7400C079201101
:02521000E03B81
:0E521200036A026A016A006A200EE76ED890F5
:1052200004360536063607360036013602360336B2
:105230000950005C0A5001580B5002580C5003589A
:1052400009E30950005E0A50015A0B50025A0C50F3
:0A525000035A042AE72EE4D71200E7
:06525A00036A026A100E57
:10526000E76ED89006360736023603360B50025CDE
:105270000C50035805E30B50025E0C50035A062AEB
:06528000E72EF0D712003A
:0A528600600EF36E00EE00F00F0E54
:1052900001D81200EA6002D0EE6AFCD7F350E96050
:0652A0001200EE6AFCD7CB
:0A52A6001EEE00F02EEE00F0F86A94
:1052B0000F9C50EC28F062EC29F065EC27F0FBD74E
:0252C0001200DA
:0252C2004F4B50
:0252C4001200D6
:0A52C600550100000000FD7E803E4F
:1052D000007D180A2003307B6300000000000000FE
:1052E00070787D0000000000000002020077890055
:1052F0000000A00FA00F2071B2000000A00FA00FAF
:105300000202007789000000400660092071B200A7
:105310000000400660090202007789000000803E1C
:10532000007D70787D000000803E007D02020077E5
:1053300089000000600940062071B2000000600989
:10534000400602020100000301000000401911E1C3
:095350003BE0010001B035E03C36
:07535900000000000000004D
:0E53600000000000000000050000000000003A
:02536E0000BA83
:0153700049F3
:00000001FF
